:030000000215C521
:0C15C500787FE4F6D8FD75816F02160CEB
:100B560053544F500D0A004C494E4520494E5445BA
:100B660052502053544152540D0A004C494E4520D0
:100B7600494E544552502053544F500D0A0041528D
:100B86004320494E544552502053544152540D0A65
:100B96000041524320494E544552502053544F5021
:100BA6000D0A0053544F50004C494E4520256420F1
:100BB6002564202564202564004152435F43572065
:100BC60025642025642025642025642025640041B1
:100BD60052435F4343572025642025642025642023
:100BE6002564202564004552524F523A20556E6BBB
:100BF6006E6F776E20636F6D6D616E640D0A0041D6
:100C0600524320494E5445525020444F4E450D0AFA
:100C1600004C494E4520494E5445525020444F4EB3
:100C2600450D0A00444F4E450D0A004255462046E2
:100C3600554C4C0D0A0052454144590D0A00436F6C
:100C46006D6D616E64733A0D0A004C494E4520780D
:100C560030207930207831207931202D204C696E72
:100C66006520696E746572706F6C6174696F6E0D64
:100C76000A004152435F435720783020793020786C
:100C8600312079312072202D20436C6F636B776998
:100C96007365206172630D0A004152435F434357F7
:100CA6002078302079302078312079312072202D3B
:100CB60020436F756E7465722D636C6F636B776915
:100CC6007365206172630D0A0053544F50202D2026
:0E0CD60053746F70206D6F74696F6E0D0A009D
:1017A800050E00000C8001051300000C8001C10B20
:1017B8005B000000000000000000000000000000C6
:1017C80000000000000000000000000000005700BA
:1017D8001B000000000000000000000000000000E6
:1017E8000000000000000000010C000208000002D8
:0317F8000A0000E4
:1010DA0075440075450075463375470075480075B7
:1010EA004935754A00754B00754C37754D00754E7C
:1010FA0000754F3922900029C3E06480948022E071
:10110A00FCA3E0FDFFAE040204F5E546F0A3E547C3
:10111A00F0A3E548F0A3E549F022900024E004F0AA
:10112A0022900023E004F022900024E024FFF090B3
:10113A000023E034FFF0A322E0F508A3E0F509A3B9
:10114A00E0F50AA3E0F50B2290000AE0FEA3E0FF17
:10115A0022AB63AA62A961A86022900025C3E06459
:10116A0080948022EC1202A28F6B8E6A8D698C6841
:10117A0022EEF0A3EFF0A3ECF0A3EDF0A32290008F
:10118A0026E004F022900025E004F022AB38AA37CA
:10119A00AD36AC35AF34AE3322853944853A458510
:1011AA003B46853C4722950BFDE0950AFCE5264522
:1011BA002522D3E5269400E5256480948022E03335
:1011CA00FEEF2401FFE43EFE22C28CD292C20B2221
:0A11DA00D3ED9400EC6480948022B1
:10000E00758921758CFF758A9CD2A9C28C758DFD60
:04001E00758BFD22BF
:0A197C00759850D28ED2ACD2AF2283
:080003008F993099FDC299228A
:1018B3008B498A4A894BAB49AA4AA94B1204CA608D
:1018C30013054BE54B7002054A14F91204CAFF12C3
:0518D300000380E22289
:1011E4008E468F478C488D498A4A8B4B900000125B
:1011F4001114A3E54AF0A3E54BF0A3E54CF0A3E5F5
:101204004DF0900012121114C3E54B9547FFE54AC7
:101214009546FE121970900008EEF0A3EFF0C3E5B6
:101224004D9549FFE54C9548FE12197090000AEE61
:10123400F0A3EFF0900008E0FCA3E0FDD39FEE6480
:1012440080F8EC6480984006AE04AF058003121168
:1012540052900018EEF0A3EFF0900016EEF0A3EF1A
:10126400F0D3E54B9547E5466480F8E54A648098F9
:1012740040067E007F0180047EFF7FFF90000CEE1D
:10128400F0A3EFF0D3E54D9549E5486480F8E54CCB
:1012940064809840067E007F0180047EFF7FFF907B
:1012A400000EEEF0A3EFF090000AE0FCA3E0FD9046
:1012B4000008E0FEA3E0FFD39DEC6480F8EE6480B8
:1012C400984002800A121152C3E49FFFE49EFE7C00
:1012D400007D02120507900010EEF0A3EFF09000DD
:0512E4001A7401F02264
:10165100900016E07002A3E0700690001AF0C32219
:10166100900010121102402690000CE0FEA3E0FF52
:10167100900013E02FF0900012E03EF0121152C3DF
:10168100900011E09FF0900010E09EF08028900003
:101691000EE0FEA3E0FF900015E02FF0900014E0B3
:1016A1003EF0900008E0FEA3E0FF900011E02FF073
:1016B100900010E03EF0900017E024FFF09000163B
:0616C100E034FFF0D3222B
:1017FC00900023E0FEA3C3EE64809480400FA3E02E
:10180C006480948040079000307401F022C3EE6431
:10181C00809480500C12116440079000307402F0D8
:10182C0022900023121167500C1211645007900083
:0C183C00307403F0229000307404F0229D
:0813CF008E548F558A588B598A
:1013D700AE04AF05EC1202A2C004C005C006C007E8
:1013E700AC54AD5512116ED007D006D005D00412FB
:1013F70016C78F5F8E5E8D5D8C5CAC5AAD5BEC1251
:1014070002A2C004C005C006C007AC58AD591211EE
:101417006ED007D006D005D0041216C7AB5FAA5E00
:10142700A95DA85C1200291219578F638E628D611E
:101437008C607FDA7E0F7D497C4012115B1202249B
:101447006018401612115B7FDA7E0F7DC97C40124F
:1014570000298F638E628D618C60900027E0FCA36A
:10146700E0FDEC1202A212115B12011EE4FBFAF975
:08147700784012011E1202DB95
:01147F00224A
:10173A0090001B12117BEAF0A3EBF0A3E54FF0A394
:10174A00E550F0A312117BE551F0A3E552F09000A9
:10175A0031E553F0854F5A85505B1213CF90002D17
:10176A00EEF0A3EFF090002BEEF0A3EFF09000253F
:10177A00121109AA06AB07900023121109EF2BFBDD
:10178A00EE3AFA900027121109C3EB9FFFEA9EA3D3
:0E179A00F0A3EFF01217FC90002F7401F02264
:100CE40090002BE07002A3E0602890001FE0FEA3B8
:100CF400E0FF900023E0B50620A3E0B5071B9000B9
:100D040021E0FEA3E0FF900025E0B5060CA3E0B5CA
:100D14000707E490002FF0C322900030E024FE6027
:100D24003A14605F147003020DD524036003020EAD
:100D340040900031E070131210FF4003020E0312C2
:100D44001188700312118F020E271210FF400280C7
:100D54004A121124702512112B8020900031E0706A
:100D64000D1210FF40028033121132020DF51210E1
:100D7400FF400E121124700312112B900024020D57
:100D8400F58018900031E0702B1210FF400D121105
:100D940024700312112B9000248056900026E02426
:100DA400FFF0900025E034FFF0A3E025E0FF900081
:100DB40025020E0D1210FF400B1211887003121140
:100DC4008F020E27121124700312112B900024801D
:100DD40020900031E070231210FF400A1211887035
:100DE4000312118F803D121124700312112B9000F5
:100DF40024E025E0FF90002380331210FF401C12F2
:100E04001132E025E0FF9000231211C8C390002A9C
:100E1400E09FF0900029E09EF08021121188700379
:100E240012118F900026E025E0FF9000251211C8D2
:100E340090002AE02FF0900029E03EF01217FC9079
:0E0E4400002CE024FFF090002BE034FFF0D3F0
:010E5200227D
:0C1964001211D37BFF7A0B79560218B3E6
:1018F90085444C85454D1211E4C292D20BD28C7BA2
:08190900FF7A0B795D0218B3AF
:101924001211D3E490001AF07BFF7A0B797102183C
:01193400B3FF
:1018D80085444F8545508546518547528548531262
:1018E800173AC292D20BD28C7BFF7A0B79840218FA
:0118F800B33C
:101935001211D3E490002FF07BFF7A0B79970218F0
:01194500B3EE
:061480008B308A31893235
:10148600A801AC02AD037BFF7A0B79A9120771EFB5
:10149600701590001AE0600302192490002FE06096
:1014A600030219350219647541FF75420B7543AE87
:1014B6001210DAAB30AA31A932120885EF64044E55
:1014C600700C853944853A451211960218F9754112
:1014D600FF75420B7543BF1210DA12151964054EDB
:1014E60070081211A375480180197541FF75420BEA
:1014F6007543D51210DA12151964054E700B1211C8
:10150600A3F5481211960218D87BFF7A0B79EC12D4
:0215160018B308
:101518002275500075510075523BAB30AA31A93283
:05152800120885EF220E
:03000B00020E538F
:100E5300C0E0C083C082C0D075D000C000C001C054
:0B0E630002C003C004C005C006C007A9
:100E6E00758CFF758A9C90002FE0605C90002312B9
:100E7E001142120CE4401290002FE4F0C20BC28C0F
:100E8E007BFF7A0C7905020F96C3900024E095093A
:100E9E00F526900023E09508F525C3900026E090F6
:100EAE0000251211B0600D1211BC4003D38001C396
:100EBE009291B290ED4C7003020F991211DA400428
:100ECE00D3020F31C3020F3190001AE0605B900025
:100EDE0012121142121651401290001AE4F0C20B77
:100EEE00C28C7BFF7A0C7917020F96C3900013E029
:100EFE009509F526900012E09508F525C39000158A
:100F0E00E09000141211B0600D1211BC4003D3809A
:100F1E0001C39291B290ED4C60711211DA4003D37D
:100F2E008001C39296B2978062D3780FE694001830
:100F3E00E694004017B29020901208E61618700141
:100F4E0016780FE618467004D292C290D37814E643
:100F5E00940018E694004015B29720971008E616F4
:100F6E00187001167814E618467002C297780FE6CC
:100F7E00184670177814E618467010300B0DC28C98
:0B0F8E00C20B7BFF7A0C792A1218B30B
:100F9900D007D006D005D004D003D002D001D000AC
:090FA900D0D0D082D083D0E03218
:0300230002152D96
:10152D00C0E0C0F0C083C082C0D075D000C000C084
:0D153D0001C002C003C004C005C006C00705
:10154A00309858C29885992FE52F640D6005E52FCC
:10155A00B40A22E50CD3940040417432250CF5827A
:10156A00E43400F583E4F07B017A007932121480C6
:10157A00750C008026E50CC3941F5013AF0C050CA4
:10158A0074322FF582E43400F583E52FF0800C7570
:10159A000C007BFF7A0C79311218B3309902C29988
:1015AA00D007D006D005D004D003D002D001D00095
:0B15BA00D0D0D082D083D0F0D0E0323F
:1018480012000E12197C1219647A0C793C12188451
:101858007A0C79441218B37A0C79501218847A0CDD
:1018680079781218B37BFF7A0C799F1218B37BFF33
:101878007A0C79CF1218B343870180FB7BFF1218CB
:04188800B37BFF220D
:10002600020347E86480F8E933E83360110460F0BE
:10003600ED33EC337009E8FCE9FDEAFEEBFF220440
:1000460060DED3EB9FEA9EE99DE8C2E78CF0C2F73B
:1000560095F0400CE8CCF8E9CDF9EACEFAEBCFFB07
:1000660012031285D0F05804700320D5B3E804704B
:10007600075002B2D502035192D5EC0460F7E4CCE6
:10008600C0E0C398F8603B94186008400DD0E0FBD0
:10009600020329E4FBFAC9FC8028E830E406E4C937
:1000A600FBE4CAFCE830E305E4C9CACBFCE8540724
:1000B6006010F8C3E913F9EA13FAEB13FBEC13FC2F
:1000C600D8F130F52FC3E49CFCEF9BFFEE9AFEEDD2
:1000D60099FDD0E0FBEF4E4D4C701222DB0302037C
:1000E6004EEC2CFCEF33FFEE33FEED33FDED30E747
:1000F600EB020329EF2BFFEE3AFEED39FDD0E0FBD4
:1001060050130BBB0003020351ED13FDEE13FEEF7C
:0801160013FFEC13FC020329A6
:10011E00EC4D6011E8497017ED33EC3304600DE4DB
:10012E00FCFFFEFD22E933E8330470F802034712A8
:10013E00031258046009E4CC2481500628500902A9
:10014E00035128400302034EC0E0EB4A7044B980CD
:10015E0006D0E0FB02033DEF4E701CBD8008EBFFA6
:10016E00EAFEE9FD80EBE98DF0A4FEE5F002020760
:10017E00E9CDF9EAFEEBFFEF89F0A4FCE5F0CE89BC
:10018E00F0A42EFFE435F0CD89F0A42DFEE435F079
:10019E008067EF4E7005BD80D780C3EF8BF0A4ACA7
:1001AE00F0EE8BF0A42CFCE435F0F8EF8AF0A42CE2
:1001BE00E5F038FCE433CB8DF0A42CFCE5F03BF8F5
:1001CE00EE8AF0A42CFCE5F038F8E433CF89F0A4E5
:1001DE002CFCE5F038CF3400CE89F0A42FFFE5F0EB
:1001EE003EFEE433C98DF0A42EFEE5F039CD8AF043
:1001FE00A42FFFE5F03EFEE43DFD33D0E0FB5007BB
:10020E000BBB000F020351EC2CFCEF33FFEE33FE61
:06021E00ED33FD0203298F
:1002240074F8CC6480CCC86480C8F58204604FC381
:10023400EB9FF5F0EA9E42F0E99D42F0E89C45F020
:10024400603C501DE5825FFFE582D313CB5BCBF4AA
:100254002B5582FB50280ABA002409B900200880D3
:100264001DE5825BFBE582D313CF5FCFF4C3132F6D
:100274005582FF50090EBE00050DBD00010CC3EBF5
:100284009FF5F0EA9E42F0E99D42F0E89C45F0605B
:0902940007CC4820E701B3EC227D
:10029D0075F020800E75F010800575F0087D007EDC
:1002AD00007F003392D530D50312055CEC3340103E
:1002BD00EF33FFEE33FEED33FDEC33FCD5F0ED22E5
:0E02CD00E5F0247EA2D513CC92E7CDCEFF2221
:1002DB00EDD2E7CD33EC3392D524814006E4FFFE1B
:1002EB00FDFC22FCE4CFCECDCC24E0501174FF807A
:1002FB00EDC3CC13CCCD13CDCE13CECF13CF047017
:07030B00F030D5DE02055CB5
:10080700E55330030104F823282441F822783E30C9
:1008170003027841E475F0011205AD0204CA60ECE9
:10082700C5577002155614C557200304FF021990C7
:10083700783E74FFF5F00205BDFF021911E554601B
:1008470006D554037F002220030F121946EF6008D4
:100857000557E5577002055622783E1205A4120483
:10086700CAFF60E9783EE475F0011205AD80DE123B
:10087700084EEFC0E0120840D0E040F380A0D2035A
:100887008002C2038B3E8A3F8940E4F555F553F554
:1008970056F557755400C202C200C201C2041208BD
:1008A70014FF7005AF557E0022B42530120814FFDF
:1008B70024D0B40A00500C75F00AC554A42554F589
:1008C7005480E924CFB41A00EF5002C2E5020B228C
:1008D700D20180D8D20080D4D20480D0EF12084051
:1008E7005008120876EF600E80A9EFC0E012084E9C
:1008F700D0E06F609EEF607412082580A712084E43
:10090700EF6069E55470070554800312084EEF60E5
:100917001420040E120807E475F0011205ADEF125A
:1009270004E3D554E62004040553055580BA12089C
:1009370044EFC0E0120840D0E05004120825E4FF5D
:1009470020040E120807E475F0011205ADEF12043A
:10095700E3EF70DA20040405530555808BE55460F6
:10096700020554120876120844EF70C6300304E4F7
:10097700120825E55560030208AB7EFF7FFF22E5DD
:100987005460020554120876D206D205120844EFC5
:1009970030060260D7C0E0120825D0E0AC58AD5948
:1009A700AE5AAF5B1212FC8C588D598E5A8F5B5022
:1009B7000712084EC20580D42004102005020555F1
:0809C7001208071205A40553F4
:1009CF0012056A02089AD0E0809A7900800A79109D
:1009DF00800679088002790AD205E5546002055431
:1009EF00E9C0E0120876EF60DD12084EBF2D04D289
:1009FF00028003BF2B09120876EF60CA120844D099
:100A0F00E0B40A028033B40802802EBF3027700290
:100A1F007408C205C0E0120844D0E0BF780280031A
:100A2F00BF58160554D554028007D55404D20580FB
:100A3F000B741080197002740ABF000AEFF8E4FCFF
:100A4F00FDFEFF020AD5C0E0EF120825D0E0F9E461
:100A5F00FCFDFEFFE9C0E0ECC0E0EDC0E0EEC0E061
:100A6F00EFC0E0120844EFF8D0E0FFD0E0FED0E096
:100A7F00FDD0E0FCD0F0E8604DB461004007B47BDE
:100A8F00005002C2E524D0503DFA24F6500724F955
:100A9F005034240AFAEAB5F000502BCFA9F0A42F56
:100AAF00FF92D5E9C5F0CEA4A2D53EFE92D5E9C5F9
:100ABF00F0CDA4A2D53DFD92D5E9C5F0CCA4A2D529
:100ACF003CFCC205808EE8C0E020042A2005080502
:100ADF005530020312055C1208071205A4055320B6
:100AEF00000B20010DEE8FF012053D800912056AF3
:100AFF008004EF1204E3D0E012082502089A2004C4
:100B0F00101208071205A40553E5568557F0120574
:100B1F003D80E81205CD09645309DD5808DB4C0808
:100B2F00D74208B34809E14F09E54409044309D9FD
:100B3F004909E55509864609864509864708DF2A8A
:070B4F000B0D4E000008E34E
:0D195700ED33EC3360065004EC6480FC229C
:1016C7008F678E668D658C64AB6BAA6AA969A868FB
:1016D70012035F120FD28F678E668D658C64E56883
:1016E70030E747ECC0E0EDC0E0EEC0E0EFC0E0E47B
:1016F700FFFEFDFCAB67AA66A965A8641202247BFE
:10170700DB600250087A0F7949784080067A0F79B2
:101717004978C0D0E0FFD0E0FED0E0FDD0E0FC1279
:10172700002D8F678E668D658C64AF67AE66AD657D
:03173700AC64227D
:10031200E9D2E7C933E833F892D5EDD2E7CD33EC31
:0703220033FC5002B2D522AA
:10032900EC30E7100FBF000C0EBE00080DBD000435
:100339000BEB6014A2D5EB13FCED92E7FD2274FFE1
:10034900FCFDFEFF22E480F8A2D574FF13FC7D803A
:03035900E480EF4E
:10035C00020351EC5D046005E85904700302034785
:10036C00120312580460F6EC4860F2EC7004FDFEC7
:10037C00FF22C860DB2481C85009C3986002500674
:10038C0002034E9850CAF582E9294B4A7005AB829C
:10039C0002033D75F0007C1A7880C3EF9BEE9AED5A
:1003AC0099400DC3EF9BFFEE9AFEED99FDE842F0EC
:1003BC00DC23ACF0D0E0FFD0E0FED0E0FDAB82203F
:1003CC00E7101BEB60BAEC2CFCEF33FFEE33FEEDC9
:1003DC0033FD020329E803F830E705C0F075F0009F
:1003EC00EF2FFFEE33FEED33FD40B830E7C280AAAD
:1012E900C207C208C209C20AF9E4F55CF55DFCFD52
:1012F900FEFFE91006EA20090CB42D04D209D32215
:10130900B42B02D32224D0504794095041240A30E7
:101319000A15F8855DF0740AA42872E74051C5F0F2
:10132900704D85F05DD322D208C0E0E4FBFA792044
:10133900784112011EECF8EDF9EEFAEFFBD0E0FC72
:10134900E41202A712002D3007B4155CD322240A37
:10135900200A20B4FE0720071AD207D32224EB6003
:101369000424E0700EA2099207D20AC209D322C34B
:10137900020347E4300A0BE55D300902F404A207D1
:1013890092093008EA255C20D2E5A2E7920A5002C8
:10139900F404B4260050D8CCC0E0EDC0E0EEC0E0C3
:1013A900EFC0E0EC12043DD0E0FFD0E0FED0E0FD5C
:1013B900D0E0FC200A0512011E800312035F3009E8
:0613C900031203FCC32225
:100FB200BE1249253E4CCCCDBEAAAAAB3F80000052
:100FC2003E7ADBB03EED63383F24BC7D3F490FDB08
:100FD200ED33ECC2E7CC339200B4FF13ED547F60E3
:100FE200030203477FDB7E0F7DC97C3F0210CDC227
:100FF20001C3947F401E7007EDD2E794904015EF35
:10100200FBEEFAEDF9ECF87F007E007D807C3F126A
:10101200035FD201ED33EC33248430E705E4C0E012
:10102200806D04FAEDD2E754F0C333DAFD5407348D
:10103200002323C0E0CCC0E0F8EDC0E0F9EEC0E050
:10104200FAEFC0E0FBE41202A7EC24FEFC8C6C8DEC
:101052006D8E6E8F6F12011E7B007A007980783F51
:1010620012002DECC56CB2E7FCEDC56DFDEEC56E50
:10107200FEEFC56FFFD0E0FBD0E0FAD0E0F9D0E0A0
:10108200F812002DA86CA96DAA6EAB6F12035F8CCB
:101092006C8D6D8E6E8F6F900FB2740312047DA8EB
:1010A2006CA96DAA6EAB6F12011ED0E0600F24BE58
:1010B200F582E4340FF58312059412002D30010BF2
:1010C2007BDB7A0F79C978BF12002DED33EC3360E8
:0810D20006ECA20092E7FC22EB
:1003FC00ED33EC33600A047003BD8004ECB2E7FC0F
:01040C0022CD
:10040D003F8000004120000042C80000447A0000F7
:10041D00461C400047C35000497424004B18968079
:10042D004CBEBC205A0E1BCA6753C21C749DC5AE70
:10043D00FB60065407601C232312046BEB543860D9
:10044D000912045712046612011EECF8EDF9EEFACA
:10045D00EFCB22EB12046680F1543803241C900478
:10046D000DFE93FC0EEE93FD0EEE930ECE93FF223A
:10047D00C0E0EFFBEEFAEDF9ECF812011ED0E0F55D
:10048D00F0EFFBEEFAEDF9ECF8120584A3A3A3A3AC
:10049D00E8C0E0E9C0E0EAC0E0EBC0E0C0F0120166
:1004AD001E120594A3A3A3A312002DD0F0D0E0FB40
:0D04BD00D0E0FAD0E0F9D0E0F8D5F0D4227C
:1015D100021848E493A3F8E493A34003F68001F2D0
:1015E10008DFF48029E493A3F85407240CC8C3331B
:1015F100C4540F4420C8834004F456800146F6DFEA
:10160100E4800B01020408102040809017A8E47EBA
:10161100019360BCA3FF543F30E509541FFEE493DE
:10162100A360010ECF54C025E060A840B8E493A3A5
:10163100FAE493A3F8E493A3C8C582C8CAC583CAD0
:10164100F0A3C8C582C8CAC583CADFE9DEE780BE88
:0117FB0000ED
:1004CA00BB010689828A83E0225002E722BBFE0230
:0904DA00E32289828A83E4932263
:1004E300BB010689828A83F0225002F722BBFE01F8
:0204F300F322F2
:1004F500EF8DF0A4A8F0CF8CF0A428CE8DF0A42E1B
:02050500FE22D4
:10050700C2D5EC30E709B2D5E4C39DFDE49CFCEE0F
:1005170030E715B2D5E4C39FFFE49EFE12078EC3F2
:10052700E49DFDE49CFC800312078E30D507C3E4ED
:060537009FFFE49EFE227E
:10053D00BB010A89828A83F0E5F0A3F0225006F709
:0F054D0009A7F01922BBFE06F3E5F009F3192206
:0E055C00C3E49FFFE49EFEE49DFDE49CFC22B0
:10056A00BB010789828A830207EF5005E9F802076F
:0A057A00E3BBFE05E9F80207FB22CF
:10058400E493FC740193FD740293FE740393FF22BD
:10059400E493F8740193F9740293FA740393FB22BD
:0905A400E6FB08E6FA08E6F9227C
:1005AD00FAE6FB0808E6F925F0F618E6CA3AF6224F
:1005BD00FAE6FB0808E625F0F9F618E63AFAF6220F
:1005CD00D083D082F8E4937012740193700DA3A3BD
:1005DD0093F8740193F5828883E4737402936860D1
:0605ED00EFA3A3A380DFD1
:10194600100C0B121986BF0D027F0A02188CAF0D00
:01195600226E
:051990008F0DD20C22B6
:10191100EFC394094005EF940E4003BF2003D38029
:0319210001C322DD
:0C197000EE30E707C3E49FFFE49EFE2278
:1005F300E3F5F009E208B5F06D606B80F3E3F5F025
:1006030009E608B5F060605E80F387F009E608B597
:10061300F054605280F487F009E208B5F048604670
:1006230080F488828C8387F009E0A3B5F0386036C4
:1006330080F488828C8387F009E493A3B5F0276064
:100643002580F388828C83E3F5F009E0A3B5F016E7
:10065300601480F388828C83E3F5F009E493A3B5F7
:10066300F004600280F202071E808580E7808E809E
:10067300D2803C8015806C807E809B80B5808B808F
:10068300A1804F8070803A02072A89828A83ECFA1C
:10069300E493F5F0A3C8C582C8CCC583CCE493A387
:1006A300C8C582C8CCC583CCB5F070606E80E189C3
:1006B300828A83E493F5F0A3E208B5F05E605C8080
:1006C300F289828A83E0F5F0A3E608B5F04D604B2A
:1006D30080F389828A83E0F5F0A3E208B5F03C60F9
:1006E3003A80F389828A83E493F5F0A3E608B5F0B0
:1006F3002A602880F2805389828A83ECFAE493F596
:10070300F0A3C8C582C8CCC583CCE0A3C8C582C842
:10071300CCC583CCB5F004600280E27FFFB5F00264
:100723000F2240027F012289828A83ECFAE0F5F0EE
:10073300A3C8C582C8CCC583CCE0A3C8C582C8CC36
:10074300C583CCB5F0D560D380E389828A83ECFA84
:10075300E0F5F0A3C8C582C8CCC583CCE493A3C895
:10076300C582C8CCC583CCB5F0B160AF80E288F058
:10077300ED2402B4040050A3F582EB2402B4040078
:0B0783005099232345822390066C73DD
:10078E00BC000BBE0029EF8DF084FFADF022E4CC4F
:10079E00F875F008EF2FFFEE33FEEC33FCEE9DEC18
:1007AE00984005FCEE9DFE0FD5F0E9E4CEFD22ED5E
:1007BE00F8F5F0EE8420D21CFEADF075F008EF2FA8
:1007CE00FFED33FD4007985006D5F0F222C398FD99
:0507DE000FD5F0EA2236
:0C07E300ECF608EDF608EEF608EFF62242
:0C07EF00ECF0A3EDF0A3EEF0A3EFF0227D
:0C07FB00ECF208EDF208EEF208EFF2223A
:10188C00EFB40A07740D121897740A309811A899BE
:10189C00B8130CC2983098FDA899C298B811F630BC
:0718AC0099FDC299F5992294
:0A1986003098FDAF99C2987E002250
:00000001FF
